:020000040800F2
:10000000305100202902000829540008C549000881
:100010002554000821050008015D000800000000CB
:10002000000000000000000000000000115800085F
:100030002907000800000000A1540008655A0008C4
:10004000430200084302000843020008430200087C
:100050004302000805550008430200084302000857
:10006000430200084302000843020008430200085C
:10007000430200084302000843020008430200084C
:10008000430200084302000843020008430200083C
:100090002505000843020008430200084302000847
:1000A000430200084302000843020008430200081C
:1000B000430200084302000843020008430200080C
:1000C00043020008430200084302000843020008FC
:1000D00043020008430200084302000843020008EC
:1000E00043020008430200084302000843020008DC
:1000F00043020008555B0008430200084302000861
:1001000043020008430200084302000843020008BB
:1001100043020008430200084302000843020008AB
:10012000430200084302000843020008810500085A
:10013000430200084302000843020008430200088B
:10014000430200084302000843020008430200087B
:10015000430200084302000843020008430200086B
:10016000430200084302000843020008430200085B
:100170004302000843020008430200080000000098
:10018000430200084302000800F002F800F03CF8C7
:100190000AA090E8000C82448344AAF10107DA45E2
:1001A00001D100F031F8AFF2090EBAE80F0013F0F8
:1001B000010F18BFFB1A43F001031847A4D2000037
:1001C000C4D20000103A24BF78C878C1FAD85207C8
:1001D00024BF30C830C144BF04680C6070470000C1
:1001E0000023002400250026103A28BF78C1FBD840
:1001F000520728BF30C148BF0B6070471FB509F0D8
:10020000A0FC1FBD10B510BD00F04FF91146FFF75F
:10021000F5FF06F0E9F900F06DF903B4FFF7F2FF1E
:1002200003BC00F075F90000094880470948004701
:10023000FEE7FEE7FEE7FEE7FEE7FEE7FEE7FEE796
:10024000FEE7FEE704480549054A064B70470000F3
:10025000415B000889010008304B0020305100202C
:10026000304D0020304D002053EA020C00F0698030
:100270002DE9F04B4FF00006002B1FBFB3FA83F5BA
:1002800003FA05F424FA05F65E4012BF1643B2FAEB
:1002900082F502FA05F4C5F120051EBF22FA05FC1D
:1002A00044EA0C04203556EA044C4FEA144418BFC3
:1002B000641C4FF000084FF00009904271EB030CF2
:1002C00039D3002919BFB1FA81F701FA07F6B0FA5C
:1002D00080F700FA07F6C7F120071EBF20FA07FCD7
:1002E00046EA0C062037B6FBF4FCA7EB0507103FE7
:1002F00007F01F0BCBF120062CFA06F60CFA0BFBCD
:1003000044BFB3460026202FA4BF5E464FF0000B2B
:100310005BEA060C08BF4FF0010B19EB0B0948EB29
:100320000608ABFB027C06FB02CC0BFB03CCC01B1C
:1003300071EB0C01C1E70B46024641464846BDE859
:10034000F08B13B5084318BF4FF0FF300146AFF3F1
:100350000080BDE81C407047032A40F2308010F056
:10036000030C00F0158011F8013BBCF1020F624450
:1003700098BF11F801CB00F8013B38BF11F8013BE1
:10038000A2F1040298BF00F801CB38BF00F8013B8E
:1003900011F0030300F05780083AC0F0088051F8CC
:1003A000043B083A51F804CBA0E80810F5E7121D09
:1003B0005CBF51F8043B40F8043BAFF30080D20728
:1003C00024BF11F8013B11F801CB48BF11F8012BF4
:1003D00024BF00F8013B00F801CB48BF00F8012B17
:1003E000704702F0FF0343EA032242EA024200F0B0
:1003F00002B84FF0000200B51346944696462039E5
:1004000022BFA0E80C50A0E80C50B1F12001BFF4CD
:10041000F7AF090728BFA0E80C5048BF0CC05DF833
:1004200004EB890028BF40F8042B08BF704748BF81
:1004300020F8022B11F0804F18BF00F8012B7047F5
:1004400070477047704710B5203AC0F00B80B1E894
:100450001850A0E81850B1E81850A0E81850203AF9
:10046000BFF4F5AF5FEA027C24BFB1E81850A0E802
:10047000185044BF18C918C0BDE810405FEA827C1C
:1004800024BF51F8043B40F8043B08BF7047D20733
:1004900028BF31F8023B48BF11F8012B28BF20F8D4
:1004A000023B48BF00F8012B7047754600F02CF85E
:1004B000AE4605006946534620F00700854618B051
:1004C00020B5FFF7BFFEBDE820404FF000064FF01B
:1004D00000074FF000084FF0000BAC46ACE8C00935
:1004E000ACE8C009ACE8C009ACE8C00921F00701DC
:1004F0008D46704710B50446AFF300802046BDE836
:100500001040FFF78ABE0000004870471800002026
:1005100001491820ABBEFEE726000200704700002C
:10052000FFE7FEE780B540F2B400C2F2000000F041
:10053000FFFC80BD80B58AB0099008910020019031
:100540008DF803000898092803DBFFE708200890CE
:10055000FFE7012002900020049005900899069181
:100560008DF81C00099A40F2B400C2F2000002A902
:1005700001AB00F035F98DF803000AB080BD000032
:1005800080B540F2DC00C2F2000001F03BFA80BD11
:1005900082B001900198007810384AF6AB21CAF673
:1005A000AA21A0FB011000090090009949F68030B3
:1005B000C0F60000405C0199C8650098042807D384
:1005C000FFE701990868042262F30900886506E0E4
:1005D0000199086840F2FF3290438865FFE701986F
:1005E000806D02B07047000086B0059000208DF845
:1005F00013000598806A03900598806910BBFFE797
:100600000398029003281BD80299DFE801F0020D3D
:100610000218059890F82F00C00720B1FFE70120CD
:100620008DF81300FFE70CE00598C06AB0F1C07FB9
:1006300004D1FFE701208DF81300FFE701E000E09F
:10064000FFE745E005988069B0F5005F25D1FFE739
:100650000398019003281ED80199DFE801F00206F3
:10066000021101208DF8130016E0059890F82F0074
:10067000C00720B1FFE701208DF81300FFE70BE072
:100680000598C06AB0F1C07F04D1FFE701208DF862
:100690001300FFE700E0FFE719E00398009003284C
:1006A00004D3FFE70098032804D00EE001208DF862
:1006B00013000BE0059890F82F00C00720B1FFE76A
:1006C00001208DF81300FFE700E0FFE7FFE7FFE7F9
:1006D0009DF8130006B0704784B003900291019218
:1006E000009303980168086820F48020086000984F
:1006F00003990968486003988068402809D1FFE79A
:100700000198039909688860029803990968C8608C
:1007100008E00298039909688860019803990968BC
:10072000C860FFE704B070477047000081B0EFF386
:10073000108072B60090FFE7FEE7000080B58AB037
:1007400001210891002005900690079104900290E5
:1007500003900090019040F2B400C2F2000069469C
:1007600000F062F90AB080BD80B584B002900191BA
:10077000029890F820008DF80300019848F67F71E8
:10078000C0F20301884201D8FFE708E04DF2C22021
:10079000C0F600004FF4D06105F036FBFFE79DF88E
:1007A0000300012805D0FFE79DF8030002280AD1C5
:1007B000FFE7019A029801684869104348610020E8
:1007C0008DF80F0008E00299486A40F480204862E2
:1007D00001208DF80F00FFE79DF80F0004B080BDE9
:1007E00080B588B00690059104920393069890F81E
:1007F00020008DF807000698006880680090059832
:10080000806828B1FFE705988068042801D1FFE7D8
:1008100008E04DF2C220C0F6000040F2E94105F0C8
:10082000F3FAFFE70598C06828B1FFE70598C068AC
:10083000022801D1FFE708E04DF2C220C0F6000017
:1008400040F2EA4105F0E0FAFFE705980069082860
:1008500001D8FFE708E04DF2C220C0F6000040F2E8
:10086000EB4105F0D1FAFFE70598806890B9FFE702
:10087000059801680020B0EBD12F01D1FFE708E017
:100880004DF2C220C0F6000040F2EE4105F0BCFA85
:10089000FFE711E0059841680020B0EB517F01D1DE
:1008A000FFE708E04DF2C220C0F6000040F2F2413E
:1008B00005F0AAFAFFE7FFE70598007D28B1FFE7FA
:1008C0000598007D012801D1FFE708E04DF2C22024
:1008D000C0F6000040F2F44105F096FAFFE79DF8FB
:1008E0000700012806D0FFE79DF80700022840F026
:1008F0008D80FFE79DF80300400700280CD4FFE738
:100900009DF803000007002806D4FFE79DF80300C8
:10091000C006002871D5FFE70098C0F3016002907F
:100920000298032809D3FFE70699486A40F40000BB
:10093000486201208DF81F0071E002990120884073
:10094000039908600598806868B9FFE70598016811
:10095000C06840EA415006990968029A01EB021109
:10096000C1F880010EE005994A688868C96840EAC4
:10097000C200084306990968029A01EB0211C1F806
:100980008001FFE70598006906990968029A01EB62
:100990000211C1F884010598007D01280CD1FFE700
:1009A00006980068029900EB0111D1F8840140F427
:1009B0008070C1F88401FFE70498406806990968CF
:1009C000029A01EB0211C1F88C01049800680699A3
:1009D0000968029A01EB0211C1F8880106980068C3
:1009E000029900EB0111D1F8800140F00100C1F83B
:1009F000800100208DF81F0011E00699486A40F43C
:100A00000010486201208DF81F0008E00699486A2E
:100A100040F48020486201208DF81F00FFE79DF818
:100A20001F0008B080BD000080B586B0049003911F
:100A3000049800680190049890F820008DF8030055
:100A40009DF80300012806D0FFE79DF80300022867
:100A500040F05281FFE70398408808B9FFE708E0BB
:100A60004DF2C220C0F600004FF4547105F0CCF9ED
:100A7000FFE70398C08808B9FFE708E04DF2C220FD
:100A8000C0F6000040F2513105F0BEF9FFE70398CF
:100A9000408908B9FFE708E04DF2C220C0F6000027
:100AA00040F2523105F0B0F9FFE70398C08908B968
:100AB000FFE708E04DF2C220C0F6000040F25331DB
:100AC00005F0A2F9FFE70398806928B1FFE70398D2
:100AD0008069012801D1FFE708E04DF2C220C0F68D
:100AE00000004FF4557105F08FF9FFE70398C069D6
:100AF00028B1FFE70398C069012801D1FFE708E0AA
:100B00004DF2C220C0F6000040F2553105F07CF9EC
:100B1000FFE70398006928B1FFE7039800690128FF
:100B200001D1FFE708E04DF2C220C0F6000040F21C
:100B3000563105F069F9FFE70398006A28B1FFE72D
:100B40000398006A012801D1FFE708E04DF2C220B6
:100B5000C0F6000040F2573105F056F9FFE746F2C3
:100B60000040C4F200000190039840691B2801D89E
:100B7000FFE708E04DF2C220C0F6000040F27231FB
:100B800005F042F9FFE70398406A1B2801D8FFE708
:100B900008E04DF2C220C0F6000040F2733105F0CB
:100BA00033F9FFE70199D1F8000240F00100C1F8E4
:100BB00000020199D1F8000220F47C50C1F8000233
:100BC0000398426A0199D1F8000240EA0220C1F874
:100BD00000020398406900F01F0101208840029044
:100BE000029A0199D1F81C029043C1F81C020398A3
:100BF000C069F0B9FFE7029A0199D1F80C0290435D
:100C0000C1F80C02039A9088D168526940EA014009
:100C1000019901EBC201C1F84002039A1088916862
:100C2000526940EA0140019901EBC201C1F8440256
:100C3000FFE70398C06901281ED1FFE7029A0199D6
:100C4000D1F80C021043C1F80C02039A9088116885
:100C5000526940EA0140019901EBC201C1F840022A
:100C6000039A90899168526940EA0140019901EB29
:100C7000C201C1F84402FFE70398806940B9FFE769
:100C8000029A0199D1F804029043C1F8040207E0E6
:100C9000029A0199D1F804021043C1F80402FFE757
:100CA0000398006940B9FFE7029A0199D1F814024C
:100CB0009043C1F8140207E0029A0199D1F8140296
:100CC0001043C1F81402FFE70398006A012808D115
:100CD000FFE7029A0199D1F81C021043C1F81C02E7
:100CE000FFE70199D1F8000220F00100C1F80002ED
:100CF00000208DF8170008E00499486A40F480202D
:100D0000486201208DF81700FFE79DF8170006B034
:100D100080BD000081B0009001B0704780B586B002
:100D20000490039102920193049890F820008DF8AA
:100D30000300039820B1FFE70398012801D1FFE7E2
:100D400008E04DF2C220C0F600004FF4BE6105F08D
:100D50005BF8FFE79DF80300012806D0FFE79DF848
:100D60000300022840F0D780FFE7039880B9FFE72F
:100D700004980068C068800748B9FFE70499486A8A
:100D800040F40010486201208DF81700CCE00FE01D
:100D9000049800680069800748B9FFE70499486A29
:100DA00040F40010486201208DF81700BCE0FFE716
:100DB00004980068039900EB0110D0F8B00100F02E
:100DC0000400029988600298806858B9FFE7049887
:100DD0000068039900EB0110D0F8B001400D0299B2
:100DE00008600AE004980068039900EB0110D0F84D
:100DF000B001C00802994860FFE7049800680399B1
:100E000000EB0110D0F8B00100F002000299C860B8
:100E100004980068039900EB0110D0F8B40100F0C9
:100E20000F000299086104980068039900EB011013
:100E3000D0F8B40180B2000A029988610498006871
:100E4000039900EB0110D0F8B401000C029948613D
:100E500004980068039900EB0110D0F8B8010199DB
:100E6000087004980068039900EB0110D0F8B801ED
:100E7000000A0199487004980068039900EB01107A
:100E8000D0F8B801000C01998870049800680399A3
:100E900000EB0110D0F8B801000E0199C870049859
:100EA0000068039900EB0110D0F8BC0101990871AA
:100EB00004980068039900EB0110D0F8BC01000A07
:100EC0000199487104980068039900EB0110D0F86B
:100ED000BC01000C0199887104980068039900EB2B
:100EE0000110D0F8BC01000E0199C871039838B9FF
:100EF000FFE704980168C86840F02000C86006E079
:100F000004980168086940F020000861FFE70020AC
:100F10008DF8170008E00499486A40F48020486280
:100F200001208DF81700FFE79DF8170006B080BD7F
:100F300080B58AB00990002008900998006840693F
:100F400007900998006840680690099800688068D2
:100F5000059009980068C0680490099800680069C5
:100F6000039009980068806902909DF81C00C007F2
:100F7000002800F09480FFE79DF81400C00758B3E4
:100F8000FFE709980168012088609DF81400800738
:100F9000002804D5FFE7099800F01CFD1BE09DF830
:100FA00014004007002805D5FFE7089840F40060CA
:100FB00008900FE09DF814000007002805D5FFE712
:100FC000089840F48050089003E0099800F0FEFC77
:100FD000FFE7FFE7FFE7FFE79DF81500C00760B3F5
:100FE000FFE7099801684FF4807088609DF815004C
:100FF0008007002804D5FFE7099800F0F3FC1BE008
:101000009DF815004007002805D5FFE7089840F433
:10101000005008900FE09DF815000007002805D546
:10102000FFE7089840F48040089003E0099800F03A
:10103000D5FCFFE7FFE7FFE7FFE79DF81600C007D5
:1010400060B3FFE7099801684FF4803088609DF82D
:1010500016008007002804D5FFE7099800F0CAFCB5
:101060001BE09DF816004007002805D5FFE708980B
:1010700040F4004008900FE09DF81600000700289B
:1010800005D5FFE7089840F48030089003E0099800
:1010900000F0ACFCFFE7FFE7FFE7FFE7FFE79DF8A5
:1010A0001C000007002810D5FFE79DF81000C006BF
:1010B000002809D5FFE7089840F4007008900998C7
:1010C00001681020C860FFE7FFE79DF81C0040079B
:1010D00000280FD5FFE79DF810000007002808D56D
:1010E000FFE7099801680820C860099800F0DEFB56
:1010F000FFE7FFE79DF81C00800700280BD5FFE7FE
:1011000009980068C068800720B1FFE7099800F0DF
:10111000D1FBFFE7FFE79DF81C004006002810D533
:10112000FFE79DF80C00C006002809D5FFE70898E6
:1011300040F4806008900998016810200861FFE77A
:10114000FFE79DF81C00800600280FD5FFE79DF8FB
:101150000C000007002808D5FFE70998016808205F
:101160000861099800F0E0FBFFE7FFE79DF81C002D
:10117000C00600280BD5FFE70998006800698007C2
:1011800020B1FFE7099800F0D3FBFFE7FFE79DF8E8
:101190001E00800700280FD5FFE79DF81800C00645
:1011A000002808D5FFE709980168102048600998D1
:1011B00000F0C2FBFFE7FFE79DF81E00C00778B113
:1011C000FFE79DF818000007002808D5FFE70998F9
:1011D000016808204860099800F010FCFFE7FFE76D
:1011E0009DF81D000006002840F18D80FFE79DF866
:1011F00018004007002840F18180FFE79DF81D009E
:10120000C00750B1FFE79DF80800C00728B1FFE70D
:10121000089840F001000890FFE79DF81D00800746
:1012200000280BD5FFE79DF808008007002805D5AA
:10123000FFE7089840F002000890FFE79DF81D00C6
:10124000400700280BD5FFE79DF80800400700285D
:1012500005D5FFE7089840F004000890FFE79DF8E7
:101260001D000007002848D5FFE79DF8080010F092
:10127000700F42D0FFE7029800F070000146019124
:10128000102814D0FFE70198202815D0FFE7019817
:10129000302816D0FFE70198402817D0FFE70198C3
:1012A000502818D0FFE70198602819D01DE0089851
:1012B00040F00800089019E0089840F010000890ED
:1012C00014E0089840F0200008900FE0089840F0E3
:1012D000400008900AE0089840F08000089005E07F
:1012E000089840F48070089000E0FFE709980168D2
:1012F000886920F070008861FFE7FFE709980168BE
:1013000004204860FFE7089848B1FFE7089A099968
:10131000486A104348620998FFF7FCFCFFE70AB0EF
:1013200080BD000080B584B00290029820B9FFE72C
:1013300001208DF80F0063E20298006846F2004138
:10134000C4F20001884209D0FFE70298006846F61F
:101350000001C4F20001884201D1FFE708E04DF22C
:10136000C220C0F6000040F21D1104F04DFDFFE761
:101370000298007E28B1FFE70298007E012801D183
:10138000FFE708E04DF2C220C0F600004FF48F7175
:1013900004F03AFDFFE70298407E28B1FFE702988B
:1013A000407E012801D1FFE708E04DF2C220C0F6DF
:1013B000000040F21F1104F027FDFFE70298807E35
:1013C00028B1FFE70298807E012801D1FFE708E0FD
:1013D0004DF2C220C0F600004FF4907104F014FDED
:1013E000FFE70298C07E28B1FFE70298C07E01287F
:1013F00001D1FFE708E04DF2C220C0F6000040F244
:10140000211104F001FDFFE70298007F28B1FFE7FA
:101410000298007F012801D1FFE708E04DF2C220C9
:10142000C0F600004FF4917104F0EEFCFFE7029863
:10143000407F28B1FFE70298407F012801D1FFE7F4
:1014400008E04DF2C220C0F6000040F2231104F083
:10145000DBFCFFE70298806890B1FFE702988068A4
:10146000B0F1804F0CD0FFE702988068B0F1004FD8
:1014700006D0FFE702988068B0F1404F01D1FFE746
:1014800008E04DF2C220C0F600004FF4927104F063
:10149000BBFCFFE70298C06890B1FFE70298C06804
:1014A000B0F1807F0CD0FFE70298C068B0F1007FF8
:1014B00006D0FFE70298C068B0F1407F01D1FFE796
:1014C00008E04DF2C220C0F6000040F2251104F001
:1014D0009BFCFFE70298006900285AD0FFE70298BA
:1014E0000069B0F5803F54D0FFE702980069B0F57D
:1014F000003F4ED0FFE702980069B0F5403F48D06A
:10150000FFE702980069B0F5802F42D0FFE702980C
:101510000069B0F5A02F3CD0FFE702980069B0F554
:10152000C02F36D0FFE702980069B0F5E02F30D029
:10153000FFE702980069B0F5002F2AD0FFE7029874
:101540000069B0F5102F24D0FFE702980069B0F5CC
:10155000202F1ED0FFE702980069B0F5302F18D079
:10156000FFE702980069B0F5402F12D0FFE702981C
:101570000069B0F5502F0CD0FFE702980069B0F574
:10158000602F06D0FFE702980069B0F5702F01D1F7
:10159000FFE708E04DF2C220C0F600004FF493715F
:1015A00004F032FCFFE70298406950B3FFE702986D
:1015B0004069B0F5801F24D0FFE702984069B0F57C
:1015C000001F1ED0FFE702984069B0F5401F18D0F9
:1015D000FFE702984069B0F5800F12D0FFE702984C
:1015E0004069B0F5A00F0CD0FFE702984069B0F554
:1015F000C00F06D0FFE702984069B0F5E00F01D1B7
:10160000FFE708E04DF2C220C0F6000040F22711CB
:1016100004F0FAFBFFE70298406838B1FFE7029850
:101620004068B0F5806F01D8FFE708E04DF2C220B6
:10163000C0F600004FF4947104F0E6FBFFE7029857
:1016400090F8200020B9FFE7029800F0DDF8FFE7EE
:1016500002980168086840F00100086001F07CFA17
:101660000190FFE7029800684068C007A8B9FFE74B
:1016700001F072FA0199401A0B280DD3FFE7029985
:10168000486A40F4003048620299052081F8200041
:1016900001208DF80F00B3E0E4E7029801680868C4
:1016A00020F00200086001F057FA0190FFE702986D
:1016B000006840688007002815D5FFE701F04CFA64
:1016C0000199401A0B280DD3FFE70299486A40F4AC
:1016D000003048620299052081F8200001208DF831
:1016E0000F008DE0E3E70298007E012807D1FFE7B5
:1016F00002980168086840F08000086006E00298DF
:101700000168086820F080000860FFE70298407ECA
:10171000012807D1FFE702980168086840F04000FF
:10172000086006E002980168086820F04000086040
:10173000FFE70298807E012807D1FFE70298016841
:10174000086840F02000086006E002980168086818
:1017500020F020000860FFE70298C07E012807D132
:10176000FFE702980168086820F01000086006E0B2
:1017700002980168086840F010000860FFE70298CE
:10178000007F012807D1FFE702980168086840F050
:101790000800086006E002980168086820F0080068
:1017A0000860FFE70298407F012807D1FFE7029811
:1017B0000168086840F00400086006E002980168CB
:1017C000086820F004000860FFE7029B19685A6867
:1017D0009868D3F80CC040EA0C00D3F810C040EA77
:1017E0000C005B691843013A1043C861029900205C
:1017F0004862029A012182F820108DF80F00FFE75D
:101800009DF80F0004B080BD80B58AB0099000201B
:10181000089007900690059004900998006846F299
:101820000041C4F2000188423ED1FFE7FFE70020FB
:10183000039043F64000C4F20200016841F00071D9
:101840000160006800F0007003900398FFE7FFE775
:101850000020029043F63000C4F20200016841F01B
:1018600001010160006800F0010002900298FFE7AA
:101870004FF4C05004900220059000200090069084
:1018800003200790092008900020C4F2020004A958
:1018900000F078FD009A14200190052101F052FA21
:1018A000019801F037FAFFE70AB080BD81B00090DF
:1018B00001B0704780B58AB00990099840F278036A
:1018C000C2F20003002102AAFFF728FA18B1FFE7CD
:1018D000FEF72CFFFFE740F27800C2F200008179AA
:1018E00001910021052204F025FE0146019888425D
:1018F00017D1FFE740F27800C2F20000417840F2D1
:10190000A102C2F200021170817840F2A202C2F27A
:1019100000021170C07840F2A001C2F2000108700C
:10192000FFE70AB080BD000081B0009001B07047B1
:1019300081B0009001B0704781B0009001B0704755
:1019400080B584B00290029890F8200001282FD131
:10195000FFE70299022081F82000029801680868D8
:1019600020F00100086001F0F7F80190FFE702980D
:1019700000684068C007A8B1FFE701F0EDF80199E1
:10198000401A0B280DD3FFE70299486A40F4003053
:1019900048620299052081F8200001208DF80F008F
:1019A0000FE0E4E70299002048628DF80F0008E09C
:1019B0000299486A40F40020486201208DF80F0027
:1019C000FFE79DF80F0004B080BD000081B00090DB
:1019D00001B0704781B0009001B0704781B00090B5
:1019E00001B0704781B0009001B0704781B00090A5
:1019F00001B0704781B0009001B0704781B0009095
:101A000001B0704780B586B005900020039040F289
:101A10000000C2F20000006848F2B511C1F64E3174
:101A2000A0FB0110800A02900598806D019001983A
:101A30000068049004980599C96DC8400007002803
:101A40001AD5FFE70598006800684007002812D5FE
:101A5000FFE705980168086820F004000860059811
:101A6000C16D08208840019988600599486D40F053
:101A700001004865FFE7FFE704980599C96DC84074
:101A8000C007A0B1FFE7059800684069000600287C
:101A90000CD5FFE70598C16D012088400199886049
:101AA0000599486D40F002004865FFE7FFE704989C
:101AB0000599C96DC8404007002814D5FFE705986F
:101AC00000680068800700280CD5FFE70598C16D05
:101AD00004208840019988600599486D40F0040011
:101AE0004865FFE7FFE704980599C96DC840C0063F
:101AF000002847D5FFE70598006800680007002820
:101B00003FD5FFE70598C16D102088400199886096
:101B1000059800680068400300281AD5FFE705987B
:101B2000006800680003002809D4FFE70598006CEE
:101B300020B1FFE70598016C8847FFE708E00598AA
:101B4000806C20B1FFE70598816C8847FFE7FFE7CD
:101B500016E0059800680068C005002807D4FFE774
:101B600005980168086820F008000860FFE70598FC
:101B7000006C20B1FFE70598016C8847FFE7FFE79D
:101B8000FFE7FFE704980599C96DC8408006002863
:101B900040F18D80FFE7059800680068C0060028C6
:101BA00040F18480FFE70598C16D202088400199AD
:101BB0008860059890F83500052834D1FFE705982E
:101BC0000168086820F016000860059801684869F7
:101BD00020F0800048610598006C20B9FFE7059867
:101BE000806C38B1FFE705980168086820F00800AC
:101BF0000860FFE70598C16D3F2088400199886023
:101C00000599012081F83500FFE70599002081F84A
:101C10003400FFE70598006D20B1FFE70598016DDE
:101C20008847FFE77BE005980068006840030028CC
:101C30001AD5FFE70598006800680003002809D45A
:101C4000FFE70598406C20B1FFE70598416C884795
:101C5000FFE708E00598C06B20B1FFE70598C16B6E
:101C60008847FFE7FFE720E0059800680068C005A7
:101C7000002811D4FFE705980168086820F01000DB
:101C800008600599012081F83500FFE705990020DB
:101C900081F83400FFE7FFE70598C06B20B1FFE74C
:101CA0000598C16B8847FFE7FFE7FFE7FFE7059867
:101CB000406DA0B3FFE70598406DC00730B3FFE764
:101CC0000599052081F8350005980168086820F01D
:101CD00001000860FFE703980130039002998842F1
:101CE00001D9FFE707E0FFE7059800680068C00733
:101CF0000028F0D1FFE70599012081F83500FFE7C2
:101D00000599002081F83400FFE7FFE70598C06CD3
:101D100020B1FFE70598C16C8847FFE7FFE706B0F1
:101D200080BD000080B586B004900020039000F0D4
:101D300013FF0290049820B9FFE701208DF81700E7
:101D400087E20498006846F21001C4F2020188425A
:101D500000F08880FFE70498006846F22801C4F28A
:101D6000020188427ED0FFE70498006846F24001F5
:101D7000C4F20201884275D0FFE70498006846F279
:101D80005801C4F2020188426CD0FFE70498006851
:101D900046F27001C4F20201884263D0FFE7049862
:101DA000006846F28801C4F2020188425AD0FFE777
:101DB0000498006846F2A001C4F20201884251D0A2
:101DC000FFE70498006846F2B801C4F202018842B5
:101DD00048D0FFE70498006846F21041C4F20201BF
:101DE00088423FD0FFE70498006846F22841C4F2D9
:101DF0000201884236D0FFE70498006846F240416D
:101E0000C4F2020188422DD0FFE70498006846F230
:101E10005841C4F20201884224D0FFE704980068C8
:101E200046F27041C4F2020188421BD0FFE70498D9
:101E3000006846F28841C4F20201884212D0FFE7EE
:101E40000498006846F2A041C4F20201884209D019
:101E5000FFE70498006846F2B841C4F202018842E4
:101E600001D1FFE707E04DF26B30C0F60000B7216B
:101E700003F0CAFFFFE70498406850B3FFE70498F7
:101E80004068B0F1007F24D0FFE704984068B0F1CB
:101E9000806F1ED0FFE704984068B0F1C06F18D083
:101EA000FFE704984068B0F1006F12D0FFE7049894
:101EB0004068B0F1206F0CD0FFE704984068B0F1A3
:101EC000406F06D0FFE704984068B0F1606F01D121
:101ED000FFE707E04DF26B30C0F60000B82103F0D9
:101EE00093FFFFE70498806850B1FFE7049880688B
:101EF000402805D0FFE704988068802801D1FFE7DB
:101F000007E04DF26B30C0F60000B92103F07CFF12
:101F1000FFE70498C068B0F5007F04D0FFE704989D
:101F2000C06808B9FFE707E04DF26B30C0F600006B
:101F3000BA2103F069FFFFE704980069B0F5806FEC
:101F400004D0FFE70498006908B9FFE707E04DF205
:101F50006B30C0F60000BB2103F056FFFFE704988A
:101F6000406960B1FFE704984069B0F5006F06D0A2
:101F7000FFE704984069B0F5805F01D1FFE707E013
:101F80004DF26B30C0F60000BC2103F03DFFFFE7CF
:101F90000498806960B1FFE704988069B0F5005F3C
:101FA00006D0FFE704988069B0F5804F01D1FFE7C4
:101FB00007E04DF26B30C0F60000BD2103F024FFB6
:101FC000FFE70498C06958B1FFE70498C069B0F50D
:101FD000807F05D0FFE70498C069202801D1FFE782
:101FE00007E04DF26B30C0F60000BE2103F00CFF9D
:101FF000FFE70498006A90B1FFE70498006AB0F523
:10200000803F0CD0FFE70498006AB0F5003F06D08F
:10201000FFE70498006AB0F5403F01D1FFE707E011
:102020004DF26B30C0F60000BF2103F0EDFEFFE77C
:102030000498406A28B1FFE70498406A042801D157
:10204000FFE707E04DF26B30C0F60000C02103F05F
:10205000DBFEFFE70498406A00285BD0FFE70498A6
:10206000806A78B1FFE70498806A01280AD0FFE708
:102070000498806A022805D0FFE70498806A032844
:1020800001D1FFE707E04DF26B30C0F60000C5213B
:1020900003F0BAFEFFE70498C06A90B1FFE7049826
:1020A000C06AB0F5000F0CD0FFE70498C06AB0F129
:1020B000807F06D0FFE70498C06AB0F1C07F01D1ED
:1020C000FFE707E04DF26B30C0F60000C62103F0D9
:1020D0009BFEFFE70498006B90B1FFE70498006B4C
:1020E000B0F5001F0CD0FFE70498006BB0F5800F2F
:1020F00006D0FFE70498006BB0F5C00F01D1FFE7F1
:1021000007E04DF26B30C0F60000C72103F07CFE03
:10211000FFE7FFE70499022081F83500FFE7049903
:10212000002081F83400FFE704980168086820F077
:1021300001000860FFE7049800680068C00790B1DC
:10214000FFE700F009FD0299401A06280AD3FFE7CD
:102150000499202048650499032081F835008DF802
:10216000170076E0E7E7049800680068039003989A
:1021700048F23F01CFF2100108400390049900910A
:102180004868D1F808C0CB680A6940EA0C001843D7
:1021900010434A6910438A691043CA691043096AA7
:1021A00001430398084303900498406A042808D127
:1021B000FFE70499C86A096B014303980843039039
:1021C000FFE703980499096808600498006840696B
:1021D0000390039820F0070003900498416A039845
:1021E000084303900498406A04281AD1FFE7049832
:1021F000816A0398084303900498C06A80B1FFE79E
:102200000498FEF7F1F950B1FFE7049940204865C2
:102210000499012081F835008DF8170019E0FFE7D7
:10222000FFE703980499096848610498FEF7B0F93C
:1022300001900498C16D3F208840019988600499FD
:1022400000204865049A012182F835108DF81700A6
:10225000FFE79DF8170006B080BD000080B588B08C
:10226000069005910492039300208DF80B000698C8
:10227000806D0190039828B1FFE7BDF80E0008B902
:10228000FFE708E04DF26B30C0F6000040F2CB11E2
:1022900003F0BAFDFFE7FFE7069890F83400012845
:1022A00004D1FFE702208DF81F0045E006990120C8
:1022B00081F83400FFE7FFE7069890F83500012821
:1022C0002BD1FFE70699022081F8350006990020FE
:1022D000486506980599049A039BFEF7FDF9069850
:1022E000C16D3F20884001998860069801680868A0
:1022F00040F0160008600698006C38B1FFE70698B9
:102300000168086840F008000860FFE70698016867
:10231000086840F00100086009E0FFE70699002026
:1023200081F83400FFE702208DF80B00FFE79DF8ED
:102330000B008DF81F00FFE79DF81F0008B080BD5F
:1023400080B584B0039000F007FC029003980190E0
:102350000198013048B1FFE740F20900C2F20000E5
:102360000178019808440190FFE7FFE700F0F4FBD3
:102370000299401A0199884201D2FFE7F6E704B0BA
:1023800080BD000080B58EB00D900C9100200A90A9
:10239000099008900D980021C4F20201884240D0B3
:1023A000FFE70D9840F20041C4F20201884238D0A4
:1023B000FFE70D9840F60001C4F20201884230D0D8
:1023C000FFE70D9840F60041C4F20201884228D090
:1023D000FFE70D9841F20001C4F20201884220D0CB
:1023E000FFE70D9841F20041C4F20201884218D083
:1023F000FFE70D9841F60001C4F20201884210D0B7
:10240000FFE70D9841F60041C4F20201884208D06E
:10241000FFE70D9842F20001C4F20201884201D1A7
:10242000FFE707E04DF23230C0F60000AC2103F0C8
:10243000EBFCFFE70C98008828B1FFE70C98408878
:1024400008B9FFE707E04DF23230C0F60000AD21D9
:1024500003F0DAFCFFE70C984068E8B3FFE70C985C
:102460004068012838D0FFE70C984068112833D025
:10247000FFE70C98406802282ED0FFE70C984068D0
:10248000122829D0FFE70C984068B0F5881F23D0A8
:10249000FFE70C984068B0F5041F1DD0FFE70C98CB
:1024A0004068B0F5441F17D0FFE70C984068B0F5BE
:1024B000901F11D0FFE70C984068B0F5081F0BD0B3
:1024C000FFE70C984068B0F5481F05D0FFE70C986F
:1024D0004068032801D1FFE707E04DF23230C0F633
:1024E0000000AE2103F090FCFFE700200B90FFE717
:1024F0000B980F2800F2C782FFE70B990120884054
:102500000A900C9800680A990840099009980A995D
:10251000884240F0B382FFE70C98406800F0030067
:10252000012807D0FFE70C98406800F0030002285C
:102530004BD1FFE70C98C06878B1FFE70C98C068F2
:1025400001280AD0FFE70C98C068022805D0FFE7F1
:102550000C98C068032801D1FFE707E04DF2323044
:10256000C0F60000C02103F04FFCFFE70D98806823
:1025700008900B984100032000FA01F10898884365
:1025800008900C98C0680B99490000FA01F108986E
:102590000843089008980D9988600D984068089045
:1025A0000B99012000FA01F10898884308900C98D3
:1025B0004068C0F300100B9900FA01F10898084335
:1025C000089008980D994860FFE70C98406800F063
:1025D000030003282FD0FFE70C98806850B1FFE775
:1025E0000C988068012805D0FFE70C9880680228C5
:1025F00001D1FFE707E04DF23230C0F60000D121F3
:1026000003F002FCFFE70D98C06808900B984100AA
:10261000032000FA01F10898884308900C9880681C
:102620000B99490000FA01F10898084308900898AE
:102630000D99C860FFE70C98406800F0030002287D
:1026400040F0EE80FFE70C980069002800F0B980A8
:10265000FFE70C980069092800F0B380FFE70C98A9
:102660000069002800F0AD80FFE70C9800690028A1
:1026700000F0A780FFE70C980069002800F0A18017
:10268000FFE70C980069002800F09B80FFE70C989A
:102690000069012800F09580FFE70C980069012887
:1026A00000F08F80FFE70C980069022800F0898015
:1026B000FFE70C980069022800F08380FFE70C9880
:1026C000006902287DD0FFE70C980069032878D0C4
:1026D000FFE70C980069042873D0FFE70C980069A5
:1026E00004286ED0FFE70C980069042869D0FFE742
:1026F0000C980069052864D0FFE70C98006905284C
:102700005FD0FFE70C98006909285AD0FFE70C98C2
:102710000069062855D0FFE70C980069092850D0B9
:10272000FFE70C98006907284BD0FFE70C98006979
:10273000072846D0FFE70C980069072841D0FFE73B
:102740000C98006908283CD0FFE70C98006908281D
:1027500037D0FFE70C980069082832D0FFE70C98C3
:10276000006909282DD0FFE70C980069092828D0B6
:10277000FFE70C9800690A2823D0FFE70C9800694E
:102780000A281ED0FFE70C9800690B2819D0FFE734
:102790000C9800690C2814D0FFE70C9800690C28ED
:1027A0000FD0FFE70C9800690D280AD0FFE70C98BE
:1027B00000690C2805D0FFE70C9800690F2801D1AB
:1027C000FFE707E04DF23230C0F60000DE2103F0F3
:1027D0001BFBFFE70D980B996FF0030202EA510112
:1027E0000844006A08900B9800F0070081000F2051
:1027F00000FA01F10898884308900C9800690B9939
:1028000001F00701890000FA01F1089808430890D7
:1028100008980D990B9B02EA530211440862FFE7E6
:102820000D98006808900B984100032000FA01F110
:102830000898884308900C98406800F003000B99B2
:10284000490000FA01F108980843089008980D998A
:1028500008600C9880798007002800F00E81FFE75F
:10286000FFE70020079043F64400C4F2020001682D
:1028700041F480410160006800F4804007900798AF
:10288000FFE70B9820F0030043F60801C4F20101B2
:10289000405808900B9800F0030081000F2000FAC8
:1028A00001F10898884308900D980021C4F20201B4
:1028B000884203D1FFE7002006905EE00D9840F2C9
:1028C0000041C4F20201884203D1FFE701200590D4
:1028D00050E00D9840F60001C4F20201884203D195
:1028E000FFE70220049042E00D9840F60041C4F258
:1028F0000201884203D1FFE70320039034E00D98E2
:1029000041F20001C4F20201884203D1FFE7042032
:10291000029026E00D9841F20041C4F20201884283
:1029200003D1FFE70520019018E00D9841F6000162
:10293000C4F20201884203D1FFE7062000900AE0BA
:102940000D9941F60042C4F202020820914208BFEC
:1029500007200090FFE700980190FFE701980290A0
:10296000FFE702980390FFE703980490FFE70498BD
:102970000590FFE705980690FFE70698C0B20B990F
:1029800001F00301890000FA01F10898084308905A
:1029900008980B9921F0030143F60802C4F20102E2
:1029A000885043F60840C4F2010000680890099975
:1029B0000898884308900C988079C006002805D5AF
:1029C000FFE70999089808430890FFE7089843F63D
:1029D0000841C4F20101086043F60C40C4F2010052
:1029E0000068089009990898884308900C988079A5
:1029F0008006002805D5FFE7099908980843089044
:102A0000FFE7089843F60C41C4F20101086043F661
:102A10000440C4F2010000680890099908988843AE
:102A200008900C9880798007002805D5FFE7099960
:102A3000089808430890FFE7089843F60441C4F259
:102A40000101086043F60040C4F2010000680890EC
:102A500009990898884308900C988079C00728B194
:102A6000FFE70999089808430890FFE7089843F69C
:102A70000041C4F201010860FFE7FFE7FFE70B98A0
:102A800001300B9034E50EB080BD000080B582B0FF
:102A90000190ADF80210BDF8020020B1FFE7002060
:102AA00008B9FFE708E04DF23230C0F600004FF4FD
:102AB000BE7103F0A9F9FFE701980069BDF80210A3
:102AC000084204D0FFE701208DF8010003E0002058
:102AD0008DF80100FFE79DF8010002B080BD000005
:102AE00080B582B00190ADF802108DF80120BDF8DC
:102AF000020020B1FFE7002008B9FFE708E04DF22F
:102B00003230C0F6000040F29D1103F07DF9FFE77E
:102B10009DF8010028B1FFE79DF80100012801D1CF
:102B2000FFE708E04DF23230C0F600004FF4CF71FD
:102B300003F06AF9FFE79DF8010028B1FFE7BDF84F
:102B400002000199886105E0BDF8020000040199C6
:102B50008861FFE702B080BD44F25030C2F200004D
:102B60000068704740F20900C2F20000027844F2A7
:102B70005031C2F20001086810440860704700003C
:102B800080B543F60041C4F20201086840F40070C9
:102B90000860086840F480600860086840F480704D
:102BA0000860032000F002F90F2000F005F800F0A3
:102BB0007BF8002080BD000080B58CB00B90002019
:102BC00004900390FFE70020009043F64000C4F219
:102BD0000200016841F480710160006800F48070B7
:102BE00000900098FFE706A802A900F013FB0998DF
:102BF0000490049820B9FFE700F03CFB059004E046
:102C000000F038FB40000590FFE705984DF6836122
:102C1000C4F21B31A0FB01014FF0FF3000EB9140EB
:102C2000039040F29410C2F2000042F20001C4F29C
:102C30000001016040F2E731C16003994160002169
:102C400001618160816101F037FB8DF807009DF81B
:102C5000070028BBFFE740F29410C2F2000001F029
:102C600051FC8DF807009DF80700C0B9FFE72D2043
:102C700000F050F80B980F280CD8FFE70B992D2087
:102C8000002200F05FF80B9840F20C01C2F2000144
:102C9000086003E001208DF80700FFE7FFE7FFE78A
:102CA0009DF807000CB080BD80B584B0FFE7002020
:102CB000039043F64400C4F20200016841F48041ED
:102CC0000160006800F4804003900398FFE7FFE78D
:102CD0000020029043F64000C4F20200016841F077
:102CE00080510160006800F0805002900298FFE778
:102CF0006FF001000F210022009200F023F8009AEB
:102D000005210191084600F01DF8019800F002F835
:102D100004B080BD80B582B08DF807009DF9070032
:102D2000002801D4FFE707E04DF2A330C0F6000011
:102D3000BC2103F069F8FFE79DF9070002F0E2FF0C
:102D400002B080BD80B586B08DF817000491039263
:102D50000020029003980F2801D8FFE707E04DF20A
:102D6000A330C0F60000A82103F04EF8FFE7049856
:102D70000F2801D8FFE707E04DF2A330C0F60000AE
:102D8000A92103F041F8FFE702F0D4FF02909DF97A
:102D90001700019002980499039A02F047FB01463C
:102DA000019802F0CFFF06B080BD000080B582B070
:102DB00001900198072810D0FFE7019806280CD051
:102DC000FFE70198052808D0FFE70198042804D000
:102DD000FFE70198032801D1FFE707E04DF2A33098
:102DE000C0F60000902103F00FF8FFE7019802F011
:102DF000EDFF02B080BD000080B584B0029001916B
:102E0000029820B9FFE701208DF80F00FDE102983C
:102E1000006830B1FFE7029800680F2801D8FFE78B
:102E200008E04DF2FA20C0F6000040F25A2102F00C
:102E3000EBFFFFE70198E0B1FFE70198012818D008
:102E4000FFE70198022814D0FFE70198032810D06B
:102E5000FFE7019804280CD0FFE70198052808D067
:102E6000FFE70198062804D0FFE70198072801D161
:102E7000FFE708E04DF2FA20C0F6000040F25B21C7
:102E800002F0C2FFFFE7019843F60041C4F20201DD
:102E9000096801F00701884212D9FFE7019943F65A
:102EA0000040C4F202000170006800F007000199C0
:102EB000884204D0FFE701208DF80F00A5E1FFE76D
:102EC000029800788007002860D5FFE70298007814
:102ED0004007002809D5FFE743F60801C4F20201C4
:102EE000086840F4E0500860FFE7029800780007A7
:102EF000002809D5FFE743F60801C4F2020108687B
:102F000040F460400860FFE70298806840B3FFE744
:102F100002988068802823D0FFE702988068902874
:102F20001ED0FFE702988068A02819D0FFE702981A
:102F30008068B02814D0FFE702988068C0280FD0BE
:102F4000FFE702988068D0280AD0FFE702988068DF
:102F5000E02805D0FFE702988068F02801D1FFE75C
:102F600008E04DF2FA20C0F6000040F27E2102F0A7
:102F70004BFFFFE743F60801C4F20201086820F0A6
:102F8000F000029A926810430860FFE70298007808
:102F9000C007002800F08C80FFE70298406878B1F5
:102FA000FFE70298406801280AD0FFE702984068CE
:102FB000022805D0FFE702984068032801D1FFE707
:102FC00008E04DF2FA20C0F6000040F2852102F040
:102FD0001BFFFFE702984068012811D1FFE743F685
:102FE0000000C4F20200006800F400310020B0EBE1
:102FF000514F04D1FFE701208DF80F0005E12CE0CF
:1030000002984068022805D0FFE70298406803282C
:1030100011D1FFE743F60000C4F20200006800F09F
:1030200000710020B0EB516F04D1FFE701208DF853
:103030000F00EAE010E043F60000C4F2020000686E
:1030400000F002010020B0EB510F04D1FFE7012096
:103050008DF80F00D9E0FFE7FFE743F60801C4F25F
:103060000201086820F00300029A526810430860C9
:10307000FFF772FD0090FFE743F60800C4F202007C
:10308000006800F00C0002994968B0EB810F0ED087
:10309000FFE7FFF761FD0099401A41F2893188424C
:1030A00004D3FFE703208DF80F00AEE0E4E7FFE76D
:1030B000019843F60041C4F20201096801F00701DA
:1030C000884212D2FFE7019943F60040C4F20200A1
:1030D0000170006800F007000199884204D0FFE702
:1030E00001208DF80F0090E0FFE70298007840077C
:1030F000002832D5FFE70298C068C0B1FFE7029808
:10310000C068B0F5805F12D0FFE70298C068B0F5E4
:10311000A05F0CD0FFE70298C068B0F5C05F06D092
:10312000FFE70298C068B0F5E05F01D1FFE708E073
:103130004DF2FA20C0F6000040F2C32102F064FE16
:10314000FFE743F60801C4F20201086820F4E050EA
:10315000029AD26810430860FFE7029800780007DF
:10316000002833D5FFE702980069C0B1FFE7029855
:103170000069B0F5805F12D0FFE702980069B0F5F2
:10318000A05F0CD0FFE702980069B0F5C05F06D0E1
:10319000FFE702980069B0F5E05F01D1FFE708E0C2
:1031A0004DF2FA20C0F6000040F2CA2102F02CFED7
:1031B000FFE743F60801C4F20201086820F460400A
:1031C000029A126940EAC2000860FFE700F064F862
:1031D00043F60801C4F202010968C9B20A0949F6B6
:1031E0006631C0F60001895CC84040F20001C2F2BD
:1031F0000001086040F20C00C2F200000068FFF716
:10320000DBFC00208DF80F00FFE79DF80F0004B0F5
:1032100080BD000082B00190009101990F200860EC
:1032200043F60800C4F20200016801F00301019AAC
:103230005160016801F0F001019A9160016801F4A8
:10324000E051019AD160006800F46040C008019923
:10325000086143F60040C4F20200006800F0070075
:103260000099086002B0704740F20000C2F200000E
:103270000068704780B5FFF7F7FF43F60801C4F216
:1032800002010968C1F3822249F67631C0F60001D5
:10329000895CC84080BD000080B586B000200590E4
:1032A00004900390029043F60800C4F20200006804
:1032B00000F00C000146019140B1FFE7019804289D
:1032C0000AD0FFE7019808280CD04FE042F20040F6
:1032D000C0F2F40002904FE041F20020C0F27A0008
:1032E000029049E043F60400C4F20200016801F0D4
:1032F0003F01059100684002002813D5FFE743F61F
:103300000400C4F202000068C0F3881041F20021FA
:10331000C0F27A01A0FB0101059A0023FCF7A4FF8B
:10332000049012E043F60400C4F202000068C0F307
:10333000881042F20041C0F2F401A0FB0101059A9D
:103340000023FCF791FF0490FFE743F60400C4F26A
:103350000200006800F44031022000EBD1300390FD
:1033600004980399B0FBF1F0029005E042F20040AE
:10337000C0F2F4000290FFE7029806B080BD0000A2
:1033800080B586B00490049828B9FFE701208DF835
:10339000170000F048BC049800680F2801D8FFE728
:1033A00007E04DF2FA20C0F60000E62102F02CFD05
:1033B000FFE704980078C007002800F0BE80FFE710
:1033C0000498406860B1FFE704984068B0F5803F1A
:1033D00006D0FFE704984068B0F5A02F01D1FFE7C1
:1033E00007E04DF2FA20C0F60000EB2102F00CFDE0
:1033F000FFE743F60800C4F20200006800F00C008A
:10340000042813D0FFE743F60800C4F20200006866
:1034100000F00C0008281ED1FFE743F60400C4F2B8
:10342000020000684002002815D5FFE743F60000BF
:10343000C4F20200006800F400310020B0EB514FEC
:1034400008D0FFE70498406820B9FFE701208DF815
:103450001700E8E370E0FFE704984068B0F5803FAC
:1034600009D1FFE743F60001C4F20201086840F405
:103470008030086020E004984068B0F5A02F0DD19E
:10348000FFE743F60001C4F20201086840F480201F
:103490000860086840F4803008600CE043F60001E2
:1034A000C4F20201086820F480300860086820F443
:1034B00080200860FFE7FFE7FFE704984068E8B175
:1034C000FFE7FFF749FB0390FFE743F60000C4F274
:1034D0000200006800F400310020B0EB514F0CD125
:1034E000FFE7FFF739FB0399401A652804D3FFE78C
:1034F00003208DF8170096E3E7E71CE0FFF72CFBAD
:103500000390FFE743F60000C4F20200006800F4F5
:1035100000310020B0EB514F0CD0FFE7FFF71CFB50
:103520000399401A652804D3FFE703208DF817009C
:1035300079E3E7E7FFE7FFE7FFE704980078800714
:10354000002840F1B880FFE70498C06828B1FFE781
:103550000498C068012801D1FFE708E04DF2FA2085
:10356000C0F6000040F21D1102F04EFCFFE7049887
:1035700000691F2801D8FFE708E04DF2FA20C0F6E5
:1035800000004FF48F7102F03FFCFFE743F60800A4
:10359000C4F20200006810F00C0F13D0FFE743F6EE
:1035A0000800C4F20200006800F00C0008282CD1CA
:1035B000FFE743F60400C4F202000068400200285E
:1035C00023D4FFE743F60000C4F20200006800F0D5
:1035D00002010020B0EB510F09D0FFE70498C0684A
:1035E000012804D0FFE701208DF817001BE343F604
:1035F0000001C4F20201086820F0F800049A126980
:1036000040EAC2000860FFE754E00498C06870B365
:10361000FFE70021C4F2472101200860FFF79CFA70
:103620000390FFE743F60000C4F20200006800F0D8
:1036300002010020B0EB510F0CD1FFE7FFF78CFA2D
:103640000399401A032804D3FFE703208DF81700DD
:10365000E9E2E7E743F60001C4F20201086820F05E
:10366000F800049A126940EAC200086021E00021D3
:10367000C4F2472100200860FFF76EFA0390FFE7CD
:1036800043F60000C4F20200006800F002010020CE
:10369000B0EB510F0CD0FFE7FFF75EFA0399401A29
:1036A000032804D3FFE703208DF81700BBE2E7E708
:1036B000FFE7FFE7FFE704980078000700285ED5E2
:1036C000FFE70498406928B1FFE7049840690128A2
:1036D00001D1FFE708E04DF2FA20C0F600004FF4F8
:1036E000AF7102F091FBFFE70498406918B3FFE760
:1036F00040F68061C4F2472101200860FFF72CFAF0
:103700000390FFE743F67400C4F20200006800F083
:1037100002010020B0EB510F0CD1FFE7FFF71CFABC
:103720000399401A032804D3FFE703208DF81700FC
:1037300079E2E7E722E040F68061C4F24721002009
:103740000860FFF709FA0390FFE743F67400C4F23C
:103750000200006800F002010020B0EB510F0CD015
:10376000FFE7FFF7F9F90399401A032804D3FFE7AD
:1037700003208DF8170056E2E7E7FFE7FFE704981C
:1037800000784007002840F1E680FFE700208DF830
:1037900007000498806850B1FFE70498806801280A
:1037A00005D0FFE704988068052801D1FFE708E00D
:1037B0004DF2FA20C0F600004FF4C57102F024FB70
:1037C000FFE743F64000C4F202000068C000002892
:1037D00015D4FFE7FFE70020009043F64000C4F255
:1037E0000200016841F080510160006800F08050E3
:1037F00000900098FFE701208DF80700FFE747F2EF
:103800000000C4F200000068C005002822D4FFE7D1
:1038100047F20001C4F20001086840F480700860BB
:10382000FFF79AF90390FFE747F20000C4F20000A7
:103830000068C00500280CD4FFE7FFF78DF9039955
:10384000401A032804D3FFE703208DF81700EAE1AC
:10385000EAE7FFE7FFE704988068012809D1FFE75E
:1038600043F67001C4F20201086840F001000860EC
:103870001FE00498806805280DD1FFE743F670012A
:10388000C4F20201086840F004000860086840F0D3
:10389000010008600CE043F67001C4F20201086800
:1038A00020F001000860086820F004000860FFE7CD
:1038B000FFE7FFE704988068F8B1FFE7FFF74CF9EE
:1038C0000390FFE743F67000C4F20200006800F0C6
:1038D00002010020B0EB510F0ED1FFE7FFF73CF9DA
:1038E0000399401A41F28931884204D3FFE703204B
:1038F0008DF8170097E1E5E71EE0FFF72DF903903B
:10390000FFE743F67000C4F20200006800F0020115
:103910000020B0EB510F0ED0FFE7FFF71DF9039920
:10392000401A41F28931884204D3FFE703208DF821
:10393000170078E1E5E7FFE79DF80700012809D1C6
:10394000FFE743F64001C4F20201086820F080500E
:103950000860FFE7FFE70498806950B1FFE704982B
:103960008069012805D0FFE704988069022801D109
:10397000FFE708E04DF2FA20C0F6000040F2CD115A
:1039800002F042FAFFE704988069002800F04781BE
:10399000FFE743F60800C4F20200006800F00C00E4
:1039A000082800F0F080FFE704988069022840F0C2
:1039B000C780FFE70498C06930B1FFE70498C06989
:1039C000B0F5800F01D1FFE708E04DF2FA20C0F614
:1039D00000004FF4EB7102F017FAFFE70498006A59
:1039E0003F2801D8FFE708E04DF2FA20C0F60000BA
:1039F00040F2D71102F008FAFFE70498406A322833
:103A000007D3FFE70498406AB0F5D87F01D8FFE7F5
:103A100008E04DF2FA20C0F600004FF4EC7102F01D
:103A2000F3F9FFE70498806A02280FD0FFE70498B3
:103A3000806A04280AD0FFE70498806A062805D027
:103A4000FFE70498806A082801D1FFE708E04DF2FB
:103A5000FA20C0F6000040F2D91102F0D5F9FFE7D4
:103A60000498C06A022806D3FFE70498C06A0F28AA
:103A700001D8FFE708E04DF2FA20C0F600004FF44D
:103A8000ED7102F0C1F9FFE76021C4F24721002087
:103A90000860FFF761F80390FFE743F60000C4F207
:103AA0000200006800F000710020B0EB516F0CD0F4
:103AB000FFE7FFF751F80399401A032804D3FFE703
:103AC00003208DF81700AEE0E7E70499C869D1F844
:103AD00020C04B6A8A6A40EA0C0040EA8310D20395
:103AE0004FF6FF739A43A2F580321043C96A40EA49
:103AF000016043F60401C4F2020108606021C4F2CF
:103B0000472101200860FFF727F80390FFE743F6FD
:103B10000000C4F20200006800F000710020B0EB69
:103B2000516F0CD1FFE7FFF717F80399401A0328EC
:103B300004D3FFE703208DF8170074E0E7E721E0E6
:103B40006021C4F2472100200860FFF705F80390C8
:103B5000FFE743F60000C4F20200006800F00071C5
:103B60000020B0EB516F0CD0FFE7FEF7F5FF039993
:103B7000401A032804D3FFE703208DF8170052E012
:103B8000E7E7FFE74AE004988069012804D1FFE7EE
:103B900001208DF8170046E043F60400C4F202004D
:103BA0000068029004988069012831D0FFE70298EC
:103BB00000F480000499C969884229D1FFE702987E
:103BC00000F03F000499096A884221D1FFE702987A
:103BD00047F6C07108400499496AB0EB811F17D1BC
:103BE000FFE7029800F440300499896AC9034FF650
:103BF000FF729143A1F58031884209D1FFE7029815
:103C000000F070600499C96AB0EB016F04D0FFE75F
:103C100001208DF8170006E0FFE7FFE7FFE700202F
:103C20008DF81700FFE79DF8170006B080BD000073
:103C300081B0009001B0704780B584B002900298C6
:103C400020B9FFE701208DF80F00D2E1029800684B
:103C500043F20001C4F20101884212D0FFE702984A
:103C6000006843F60001C4F20001884209D0FFE772
:103C70000298006843F60041C4F20001884201D175
:103C8000FFE708E04DF2DE30C0F600004FF4A0710F
:103C900002F0BAF8FFE70298406830B1FFE70298F7
:103CA0004068B0F5827F01D1FFE708E04DF2DE30D9
:103CB000C0F6000040F2411102F0A6F8FFE70298BA
:103CC000806860B1FFE702988068B0F5806F06D029
:103CD000FFE702988068B0F5004F01D1FFE708E0E8
:103CE0004DF2DE30C0F600004FF4A17102F08CF806
:103CF000FFE70298C068B0F5006F04D0FFE70298B4
:103D0000C06808B9FFE708E04DF2DE30C0F60000F9
:103D100040F2431102F078F8FFE702988069B0F5AD
:103D2000007F0AD0FFE70298806930B1FFE7029870
:103D30008069B0F5802F01D1FFE708E04DF2DE3059
:103D4000C0F600004FF4A27102F05EF8FFE702989F
:103D5000C06918B3FFE70298C06908281ED0FFE7C2
:103D60000298C069102819D0FFE70298C069182886
:103D700014D0FFE70298C06920280FD0FFE702980F
:103D8000C06928280AD0FFE70298C069302805D00A
:103D9000FFE70298C069382801D1FFE708E04DF23B
:103DA000DE30C0F6000040F2451102F02DF8FFE7CA
:103DB0000298006A28B1FFE70298006A802801D1C2
:103DC000FFE708E04DF2DE30C0F600004FF4A371CB
:103DD00002F01AF8FFE70298406A28B1FFE702985C
:103DE000406A102801D1FFE708E04DF2DE30C0F64E
:103DF000000040F2471102F007F8FFE70298406A1E
:103E0000002863D1FFE70298006928B1FFE7029814
:103E10000069022801D1FFE708E04DF2DE30C0F66C
:103E200000004FF4A57101F0EFFFFFE70298406931
:103E300028B1FFE702984069012801D1FFE708E0B7
:103E40004DF2DE30C0F6000040F24B1101F0DCFF15
:103E5000FFE702984068B0F5827F32D1FFE7029811
:103E6000C06918B3FFE70298C06908281ED0FFE7B1
:103E70000298C069102819D0FFE70298C069182875
:103E800014D0FFE70298C06920280FD0FFE70298FE
:103E9000C06928280AD0FFE70298C069302805D0F9
:103EA000FFE70298C069382801D1FFE708E04DF22A
:103EB000DE30C0F6000040F24F1101F0A5FFFFE731
:103EC00003E002990020C861FFE736E00298C0696C
:103ED00018B3FFE70298C06908281ED0FFE70298D0
:103EE000C069102819D0FFE70298C069182814D0BB
:103EF000FFE70298C06920280FD0FFE70298C06949
:103F000028280AD0FFE70298C069302805D0FFE7CB
:103F10000298C069382801D1FFE708E04DF2DE3091
:103F2000C0F6000040F2591101F06EFFFFE7029960
:103F30000020086102994861FFE702990020886229
:103F4000029890F8510040B9FFE70299002081F8EB
:103F50005000029800F052F8FFE70299022081F821
:103F6000510002980168086820F040000860029A39
:103F7000019211685068D2F808C0D36800F48270CA
:103F80000CF4044C604403F400631844136903F018
:103F900002031844536903F001031844936903F4BE
:103FA00000731844D36903F038031844136A03F00C
:103FB00080031843926A02F4005210430860029A88
:103FC000508B00F004001168526A02F01002104495
:103FD000486002980168C86920F40060C8610299CD
:103FE00000204865029A012182F851108DF80F00D7
:103FF000FFE79DF80F0004B080BD000080B58AB0D7
:104000000990002008900790069005900490099868
:10401000006843F20001C4F20101884260D1FFE769
:10402000FFE70020039043F64400C4F20200016859
:1040300041F480510160006800F4805003900398BF
:10404000FFE7FFE70020029043F63000C4F20200D1
:10405000016841F001010160006800F00100029078
:104060000298FFE7A0200490022005900020009015
:10407000069003200790052008900020C4F202005B
:1040800004A9FEF77FF9009940F2DC00C2F20000BB
:10409000019046F25842C4F2020202604FF0C06240
:1040A000426040228260C1604FF4806202614161DF
:1040B0008161C1614FF4403202624162FDF732FE1C
:1040C00018B1FFE7FCF732FBFFE7FFE7099840F282
:1040D000DC01C2F20001816409988863FFE7FFE711
:1040E0000AB080BD80B584B002900191ADF8022085
:1040F00000208DF801000298806C08B1FFE708E00D
:104100004DF2DE30C0F6000040F25C6101F07CFE52
:10411000FFE70298806830B1FFE702988068B0F549
:10412000004F01D1FFE708E04DF2DE30C0F600009D
:1041300040F25F6101F068FEFFE7FFE7029890F848
:104140005000012804D1FFE702208DF80F009FE006
:104150000299012081F85000FFE7FFE7029890F8EC
:104160005100012804D0FFE702208DF8010084E00F
:10417000019820B1FFE7BDF8020020B9FFE7012058
:104180008DF8010079E00299032081F8510002992D
:10419000002048650199029A1163BDF80210029A45
:1041A0009186BDF80210029AD1860299886302991D
:1041B000486402990864029988870299C88702981E
:1041C0008068B0F5004F0DD1FFE7029801680868DC
:1041D00020F04000086002980168086840F48040C0
:1041E0000860FFE70298816C45F27550C0F6000048
:1041F00008640298816C45F28D50C0F60000C863D7
:104200000298816C45F24150C0F60000C8640298E3
:10421000816C00200865029B1A68196B986C0C323F
:10422000DB8EFEF71BF860B1FFE70299486D40F0A6
:104230001000486501208DF80100029981F85100B5
:104240001BE002980068006800F04000402807D09A
:10425000FFE702980168086840F040000860FFE747
:1042600002980168486840F02000486002980168A0
:10427000486840F002004860FFE7FFE7029900202D
:1042800081F85000FFE79DF801008DF80F00FFE76F
:104290009DF80F0004B080BD81B0009001B0704760
:1042A00081B0009001B0704781B0009001B07047BC
:1042B00081B0009001B0704780B582B00090009846
:1042C00020B9FFE701208DF8070012E1009800688F
:1042D0000021C4F20101884272D0FFE70098006813
:1042E000B0F1804F6CD0FFE70098006840F20041C9
:1042F000C4F20001884263D0FFE70098006840F6EE
:104300000001C4F2000188425AD0FFE7009800681B
:1043100040F60041C4F20001884251D0FFE7009806
:10432000006841F20001C4F20001884248D0FFE772
:104330000098006841F20041C4F2000188423FD079
:10434000FFE70098006840F20041C4F20101884292
:1043500036D0FFE70098006844F20001C4F2010182
:1043600088422DD0FFE70098006844F20041C4F273
:104370000101884224D0FFE70098006844F600015C
:10438000C4F2010188421BD0FFE70098006841F6A3
:104390000001C4F20001884212D0FFE700980068D3
:1043A00041F60041C4F20001884209D0FFE70098BD
:1043B000006842F20001C4F20001884201D1FFE727
:1043C00008E04DF21640C0F6000040F2131101F073
:1043D0001BFDFFE700988068A0B1FFE700988068A8
:1043E00010280FD0FFE70098806820280AD0FFE748
:1043F00000988068402805D0FFE700988068602812
:1044000001D1FFE708E04DF21640C0F600004FF47E
:104410008A7101F0F9FCFFE70098006960B1FFE7DD
:1044200000980069B0F5807F06D0FFE7009800692A
:10443000B0F5007F01D1FFE708E04DF21640C0F66D
:10444000000040F2151101F0DFFCFFE700988069E1
:1044500028B1FFE700988069802801D1FFE708E0D4
:104460004DF21640C0F600004FF48B7101F0CCFC09
:10447000FFE7009890F83D0040B9FFE70099002061
:1044800081F83C00009800F039F8FFE7009902201D
:1044900081F83D00009951F8040B01F063FB00998D
:1044A000012081F84600FFE70099012081F83E00D5
:1044B000009981F83F00009981F84000009981F847
:1044C0004100FFE7FFE70099012081F842000099D1
:1044D00081F84300009981F84400009981F8450073
:1044E000FFE70099012081F83D0000208DF80700CA
:1044F000FFE79DF8070002B080BD000081B000908A
:1045000001B0704780B584B0029002980068002125
:10451000C4F20101884272D0FFE702980068B0F14E
:10452000804F6CD0FFE70298006840F20041C4F26F
:104530000001884263D0FFE70298006840F600015E
:10454000C4F2000188425AD0FFE70298006840F6A2
:104550000041C4F20001884251D0FFE70298006890
:1045600041F20001C4F20001884248D0FFE70298FE
:10457000006841F20041C4F2000188423FD0FFE7E9
:104580000298006840F20041C4F20101884236D02E
:10459000FFE70298006844F20001C4F2010188427A
:1045A0002DD0FFE70298006844F20041C4F20101F7
:1045B000884224D0FFE70298006844F60001C4F264
:1045C000010188421BD0FFE70298006841F6000114
:1045D000C4F20001884212D0FFE70298006841F659
:1045E0000041C4F20001884209D0FFE70298006848
:1045F00042F20001C4F20001884201D1FFE708E065
:104600004DF21640C0F6000040F2CF1101F0FCFB65
:10461000FFE7029890F83D00012804D0FFE7012051
:104620008DF80F006AE00299022081F83D0002989F
:104630000168C86840F00100C86002980068002165
:10464000C4F2010188423CD0FFE702980068B0F153
:10465000804F36D0FFE70298006840F20041C4F274
:10466000000188422DD0FFE70298006840F6000163
:10467000C4F20001884224D0FFE70298006840F6A7
:104680000041C4F2000188421BD0FFE70298006895
:1046900040F20041C4F20101884212D0FFE70298C3
:1046A000006844F20001C4F20101884209D0FFE72A
:1046B0000298006841F60001C4F20001884212D15C
:1046C000FFE702980068806800F0070001900198F9
:1046D000062807D0FFE702980168086840F001004B
:1046E0000860FFE706E002980168086840F00100F2
:1046F0000860FFE700208DF80F00FFE79DF80F002E
:1047000004B080BD81B0009001B0704780B582B028
:10471000019001980068006900F002010020B0EBF0
:10472000510F28D0FFE701980068C06800F002012F
:104730000020B0EB510F1DD0FFE7019801686FF02A
:1047400002000861019901200877019800688069DA
:10475000800720B1FFE70198FFF7D4FF06E001983A
:1047600000F012F9019800F013F9FFE70199002019
:104770000877FFE7FFE701980068006900F004018F
:104780000020B0EB910F29D0FFE701980068C068C6
:1047900000F004010020B0EB910F1ED0FFE701985C
:1047A00001686FF004000861019902200877019800
:1047B0000068806910F4407F04D0FFE70198FFF79C
:1047C000A1FF06E0019800F0DFF8019800F0E0F8A2
:1047D000FFE7019900200877FFE7FFE701980068ED
:1047E000006900F008010020B0EBD10F28D0FFE7EE
:1047F00001980068C06800F008010020B0EBD10FFC
:104800001DD0FFE7019801686FF008000861019969
:104810000420087701980068C069800720B1FFE78D
:104820000198FFF76FFF06E0019800F0ADF80198DE
:1048300000F0AEF8FFE7019900200877FFE7FFE7F7
:1048400001980068006900F010010020B0EB111F12
:1048500029D0FFE701980068C06800F0100100202F
:10486000B0EB111F1ED0FFE7019801686FF0100038
:10487000086101990820087701980068C06910F460
:10488000407F04D0FFE70198FFF73CFF06E0019866
:1048900000F07AF8019800F07BF8FFE7019900201A
:1048A0000877FFE7FFE7019800680069C00780B15B
:1048B000FFE701980068C068C00748B1FFE70198AA
:1048C00001686FF001000861019800F065F8FFE7EA
:1048D000FFE7019800680069C1B20020B0EBD11F6A
:1048E00013D0FFE701980068C068C1B20020B0EBA8
:1048F000D11F09D0FFE7019801686FF080000861BF
:104900000198FFF7D1FCFFE7FFE701980068006915
:1049100000F040010020B0EB911F14D0FFE7019898
:104920000068C06800F040010020B0EB911F09D082
:10493000FFE7019801686FF040000861019800F0FE
:104940003DF8FFE7FFE701980068006900F02001EB
:104950000020B0EB511F14D0FFE701980068C06839
:1049600000F020010020B0EB511F09D0FFE70198B3
:1049700001686FF0200008610198FFF799FCFFE7DC
:10498000FFE702B080BD000081B0009001B0704729
:1049900081B0009001B0704780B582B0019001985D
:1049A000006842F20001C4F20001884203D1FFE72F
:1049B000FEF7D8F8FFE702B080BD000081B000909C
:1049C00001B07047FFE7FEE780B582B0ADF80600A2
:1049D000ADF80410ADF80220ADF800302A2000F048
:1049E00069FBBDF8060000F04DFBBDF8020000F0C9
:1049F00049FB2B2000F05EFBBDF8040000F042FBF9
:104A0000BDF8000000F03EFB2C2000F053FB02B08C
:104A100080BD000080B582B0ADF80600ADF804108E
:104A2000ADF80220BDF80620BDF804301046194646
:104A3000FFF7CAFFBDF8020000F024FB02B080BD02
:104A400080B584B084460698ADF80EC0ADF80C1061
:104A5000ADF80A20ADF80830ADF80600BDF80E003C
:104A6000BDF80C10BDF80A20013ABDF80830013B32
:104A700092B29BB2FFF7A8FFBDF80C00ADF804009E
:104A8000FFE7BDF80400BDF8081088421EDAFFE712
:104A9000BDF80E00ADF80200FFE7BDF80200BDF85A
:104AA0000A1088420BDAFFE7BDF8060000F0EAFAC8
:104AB000FFE7BDF802000130ADF80200EDE7FFE7C7
:104AC000BDF804000130ADF80400DAE704B080BDA1
:104AD00080B592B040F60000C4F2020001901021AF
:104AE000029100221192FDF7FBFF64200490FDF774
:104AF00027FC0198029901220392FDF7F1FF049827
:104B0000FDF71EFC0299039A0020C4F20200FDF793
:104B1000E7FF0498FDF714FC1120069000F0CAFA94
:104B20007820FDF70DFCF020109000F0C3FAC320B0
:104B300000F0B6FA109800F0BDFA962000F0B0FA36
:104B400036200C9000F0B6FA482000F0A9FA3A207E
:104B500000F0B0FA052000F0A3FAE62000F0AAFA6F
:104B60000F200D9000F09CFAF22000F099FA3F20FF
:104B700000F096FA4F20059000F092FA059800F0A8
:104B80008FFA282000F08CFA0E2000F089FA119894
:104B900000F086FAC52000F08DFA2A2000F080FA95
:104BA000E02000F087FA109800F07AFA03200990CC
:104BB00000F076FA0A200A9000F072FA069800F0E7
:104BC0006FFA1420079000F06BFA1C20089000F098
:104BD00067FA3B2000F064FA552000F061FA4A20A1
:104BE00000F05EFA0A9800F05BFA132000F058FA21
:104BF000079800F055FA089800F052FA1F200F901D
:104C000000F04EFAE12000F055FA109800F048FA52
:104C1000099800F045FA0A9800F042FA0C200B902F
:104C200000F03EFA0B9800F03BFA092000F038FA49
:104C30000C9800F035FA542000F032FA492000F0C8
:104C40002FFA0D9800F02CFA1B200E9000F028FA95
:104C5000182000F025FA0E9800F022FA0F9800F0C4
:104C60001FFA109800F026FA3C2000F019FA10986C
:104C700000F020FA692000F013FA292000F01AFA57
:104C80001199684601604FF4A0724FF4F073084622
:104C9000FFF7D6FE12B080BDB0B588B094468E4600
:104CA00004460E980D990C9AADF81E40ADF81CE024
:104CB0008DF81BC0ADF81830ADF816208DF8151022
:104CC0008DF81400002001908DF81000BDF81E0032
:104CD000ADF80A009DF8150040088DF812009DF807
:104CE0001220D008012101EBD2015207002A18BF7F
:104CF00008469DF815104843ADF80C009DF81B00C0
:104D000020388DF81B00BDF81E00BDF81C109DF862
:104D100012200244013A9DF815300B44013B92B237
:104D20009BB2FFF751FE0198ADF80E00FFE7BDF80A
:104D30000E00BDF80C10884280F2C180FFE79DF89C
:104D400015000C2810D1FFE79DF81B0000EB400177
:104D500049F68830C0F6000000EB8100BDF80E1067
:104D6000405C8DF813003EE09DF8150010280ED130
:104D7000FFE79DF81B1049F6FC70C0F6000000EB41
:104D80000110BDF80E10405C8DF813002AE09DF86C
:104D90001500182810D1FFE79DF81B0000EB40011B
:104DA0004AF2EC50C0F6000000EB0110BDF80E1006
:104DB000405C8DF8130014E09DF8150020280ED1FA
:104DC000FFE79DF81B104BF2BC70C0F6000000EB33
:104DD0008110BDF80E10405C8DF8130000E06EE00D
:104DE000FFE7FFE7FFE700208DF81100FFE79DF8E0
:104DF000110007285CDCFFE79DF8140030BBFFE7DB
:104E00009DF813009DF81110C840C00728B1FFE7B6
:104E1000BDF8180000F036F904E0BDF8160000F007
:104E200031F9FFE79DF8100001308DF810009DF872
:104E300010209DF81210B2FBF1F000FB112020B9F8
:104E4000FFE700208DF8100032E02AE09DF8130003
:104E50009DF81110C840C00748B1FFE7BDF81E001B
:104E6000BDF81C10BDF81820FFF7D4FDFFE7BDF812
:104E70001E000130ADF81E00BDF81E00BDF80A107E
:104E8000401A9DF8121088420AD1FFE7BDF80A00C7
:104E9000ADF81E00BDF81C000130ADF81C0007E0A5
:104EA000FFE7FFE79DF8110001308DF811009EE744
:104EB000FFE7BDF80E000130ADF80E0037E708B08F
:104EC000B0BD0000B0B58AB094468E460446109836
:104ED0000F990E9AADF82640ADF824E0ADF822C047
:104EE0008DF82130ADF81E20ADF81C108DF81B0098
:104EF00000208DF818009DF81B1049088DF8171038
:104F00008DF81A00FFE79DF81A009DF821108842DD
:104F100076DAFFE7BDF8220004909DF821109DF895
:104F20001A00C0430844C1B20A2001F077FB0146D1
:104F30000498B0FBF1F04CF6CD41CCF6CC41A0FB8F
:104F40000121C90801EB8101A0EB41008DF8190096
:104F50009DF8180070BBFFE79DF81A009DF821101E
:104F60000139884226DAFFE79DF81900E8B9FFE722
:104F7000BDF826209DF81A009DF8171010FB01209F
:104F8000BDF82410BDF81E30BDF81C209DF81BE0B4
:104F9000EC460024CCF80840CCF804E0CCF8002023
:104FA00080B22022FFF778FE24E001208DF818005F
:104FB000FFE7FFE7BDF826209DF81A009DF81710BF
:104FC00010FB0120BDF824109DF819203032BDF8E7
:104FD0001E30BDF81CC09DF81B40EE460025CEF8E3
:104FE0000850CEF80440CEF800C080B2D2B2FFF72D
:104FF00053FEFFE79DF81A0001308DF81A0082E792
:105000000AB0B0BDB0B588B094468E4604460E983E
:105010000D990C9AADF81E40ADF81CE0CDF818C003
:10502000ADF81630ADF814208DF813108DF812007D
:10503000FFE70698007818B3FFE7BDF81E00BDF83B
:105040001C10069A1278BDF81630BDF814C09DF8F1
:1050500013409DF81250EE46CEF80850CEF80440AA
:10506000CEF800C0FFF718FE9DF81310BDF81E0023
:1050700000EB5100ADF81E00069801300690D8E70D
:1050800008B0B0BD80B582B0ADF806009DF807004D
:1050900000F02AF89DF8060000F026F802B080BD66
:1050A00080B582B08DF807009DF8070000F01CF86D
:1050B00002B080BD80B584B08DF80F0040F60000CE
:1050C000C4F202000190202102910022FDF708FDA8
:1050D0009DF80F0000F008F8019802990122FDF7F1
:1050E000FFFC04B080BD000080B584B08DF80F00D7
:1050F0000020C4F202000290082101910022FDF775
:10510000EFFC9DF80F0000F0FFF9019902980122D1
:10511000FDF7E6FC04B080BD80B584B040F2B40079
:10512000C2F20000029046F20041C4F200010160A8
:1051300003214160002103918160C1604FF400228E
:1051400002614FF440124261017641768176C17668
:1051500001774177FCF7E6F818B1FFE7FBF7E6FACD
:10516000FFE7FBF7EBFA40F2B400C2F20000019057
:10517000FCF7E6FB01980221FBF7F6FA04B080BDCC
:1051800080B582B0FFE70020019043F63000C4F202
:105190000200016841F480010160006800F48000B1
:1051A00001900198FFE73B20009005210022FDF7C8
:1051B000C9FD0098FDF7AEFD02B080BD80B582B09C
:1051C00045F64900C0F600004DF22C22C0F6000260
:1051D0000021019101F0A2FA019940F29802C2F275
:1051E0000002106045F61960C0F600004CF67C72B3
:1051F000C0F6000201F092FA019940F29002C2F268
:105200000002106046F21120C0F600004DF250225C
:10521000C0F6000201F082FA019940F29C02C2F24B
:105220000002106046F25900C0F600004CF6A07271
:10523000C0F6000201F072FA40F29401C2F20001DD
:10524000086002B080BD000080B596B000201590C7
:105250001490139012901190FFE70020109043F6E5
:105260003000C4F20200016841F0100101600068E2
:1052700000F0100010901098FFE7FFE700200F905B
:1052800043F63000C4F20200016841F004010160FD
:10529000006800F004000F900F98FFE7FFE7002080
:1052A0000E9043F63000C4F20200016841F0200184
:1052B0000160006800F020000E900E98FFE7FFE705
:1052C00000200D9043F63000C4F20200016841F066
:1052D00080010160006800F080000D900D98FFE7EC
:1052E000FFE700200C9043F63000C4F20200016892
:1052F00041F001010160006800F001000C900C9881
:10530000FFE741F20000C4F2020002901C2101916B
:1053100001220892FDF7E4FB41F20040C4F20200D2
:1053200004904FF40071039100220992FDF7D8FB1D
:10533000099A0020C4F20200069018210591FDF799
:10534000CFFB099A40F60000C4F202000A90302117
:105350000791FDF7C5FB019B0298089A09991193E3
:1053600012921391149111A90B91FDF70BF8DDF82E
:105370000CC00498089B099A0B99CDF844C012936D
:1053800013921492FCF7FEFF0698089B099A0B995A
:105390001193129202221392FCF7F4FFDDF814C06D
:1053A0000698089B099A0B99CDF844C01293139262
:1053B0001492FCF7E7FFDDF81CC0089B099A0A98D5
:1053C0000B99CDF844C0129313921492FCF7DAFFB4
:1053D00016B080BD80B582B040F23C10C2F2000031
:1053E000019043F20001C4F2010101604FF48271A7
:1053F00041604FF4004181600021C1600161416161
:105400004FF400728261C1610162416281620A21CE
:10541000C162FEF711FC18B1FFE7FBF787F9FFE760
:1054200002B080BDFFE7FEE7FFE7FEE788B0079028
:1054300006910592079800F0070004900498C0F1C7
:105440000700052803D3FFE70420019004E0049837
:10545000C0F107000190FFE7019803900498043021
:10546000062803D8FFE70020009003E004980338E3
:105470000090FFE70098029006980399012202FA33
:1054800001F101390840029B984005999A40013A80
:105490001140084308B07047000000000000000001
:1054A000EFF30980BFF36F8F154B1A681EF0100FD2
:1054B00008BF20ED108A20E9F04F10602DE90900A7
:1054C0004FF0500080F31188BFF34F8FBFF36F8F01
:1054D00002F0A8FD4FF0000080F31188BDE809003C
:1054E00019680868B0E8F04F1EF0100F08BFB0EC64
:1054F000108A80F30988BFF36F8F704700BF00BF29
:10550000D00200207047000080B582B08DF80700FF
:10551000002000908DF806008DF805008DF804003D
:105520009DF807008DF8040040F23C10C2F2000024
:1055300001A90122FEF7D6FD009802B080BD00004F
:1055400080B582B001900198806B0090009801684E
:10555000486820F0030048600099486D40F0100052
:1055600048650099012081F851000098FEF760FB22
:1055700002B080BD80B582B001900198806B009030
:105580000098FEF78DFE02B080BD000080B584B0AB
:1055900003900398806B0290FDF7DEFA0190039868
:1055A0000068006800F48070B0F5807F3BD0FFE7B2
:1055B00002980168486820F020004860029801685D
:1055C000486820F0020048600298019A642100F0C7
:1055D00031F830B1FFE70299486D40F0200048658E
:1055E000FFE70298806870B9FFE7FFE700200090AE
:1055F00002980068C0680090029800688068009077
:105600000098FFE7FFE702990020C8860299012071
:1056100081F851000298406D20B1FFE70298FEF733
:1056200007FB04E0FFE70298FEF736FEFFE704B051
:1056300080BD000080B586B004900391029240F2D4
:105640000000C2F2000000684AF6AB21CAF6AA21A7
:10565000A0FB011000094DF68361C4F21B31A0FBD1
:105660000110800C4FF47A7148430190049840680F
:10567000B0F5827F15D1FFE70498039B02996A4633
:1056800011608021002200F027F848B1FFE704995B
:10569000486D40F02000486503208DF8170017E0A2
:1056A00012E0FFE7019808B9FFE70CE00198013824
:1056B0000190FFE7049800688068C1B20020B0EB59
:1056C000D11FEFD1FFE7FFE700208DF81700FFE7BC
:1056D0009DF8170006B080BD80B58AB0DDF830C0F7
:1056E000089007918DF81B20059305980190FDF710
:1056F00033FA024601980C99891A08440390FDF781
:105700002BFA0290039840F20001C2F200010968EE
:10571000C1F3CB3148430490FFE7089800688068E4
:1057200007990840401AB0FA80F040099DF81B1014
:1057300088425ED0FFE705980130002858D0FFE787
:10574000FDF70AFA0299401A0399884204D2FFE74A
:105750000398002842D1FFE708980168486820F0C4
:10576000E000486008984068B0F5827F13D1FFE7F9
:1057700008988068B0F5004F06D0FFE70898806869
:10578000B0F5806F07D1FFE708980168086820F03E
:1057900040000860FFE70898806AB0F5005F0FD10D
:1057A000FFE7FFE708980168086820F400500860E8
:1057B00008980168086840F400500860FFE7FFE7B8
:1057C0000899012081F85100FFE70899002081F82D
:1057D0005000FFE703208DF827000EE0049818B969
:1057E000FFE700200390FFE7049801380490FFE7EB
:1057F00093E700208DF82700FFE79DF827000AB007
:1058000080BD00000000000000000000000000005B
:10581000074B19680868B0E8F04F80F30988BFF3B8
:105820006F8F4FF0000080F31188704700BF00BFFA
:10583000D002002080B56FF00400002100F0A4FA2F
:1058400080BD00000000000080B58EB00D90FFE725
:105850006946002008908860182207924A60086014
:105860004DF28B22C0F60002282106914FF6FF73FD
:105870000A93FFF7C7FB0898ADF83200ADF8300087
:1058800040F28C00C2F200000390006804F0BEF801
:1058900041EC100B9FED6A1B53EC112B51EC100BDC
:1058A00003F01AFD41EC100B51EC100B9FED660B51
:1058B00053EC102B03F0BEFE41EC100B51EC100B1F
:1058C00003F0FAFD01460398ADF8321090ED000A9E
:1058D0009FED631A20EE010A10EE100A04F096F80C
:1058E00041EC100B51EC100B9FED590B53EC102BAE
:1058F00003F0F2FC41EC100B8DED040BBDF832000F
:1059000003F009FE9DED041B41EC100B51EC110B53
:1059100053EC102B03F08CFF41EC100B51EC100BEF
:105920009FED4D0B53EC102B03F084FE41EC100B5C
:1059300051EC100B03F0C0FD0699DDF820C0DDF836
:105940001CE002460A98ADF83020BDF832206B46C4
:10595000C3F808E0C3F804C0186088200323FFF7E9
:10596000B1FA0699DDF81CC008980A9B6A46906057
:10597000C2F804C010604DF27622C0F60002B020DA
:10598000FFF740FB0699DDF820C00A98DDF81CE01F
:10599000BDF830206B46C3F808E0C3F804C01860B7
:1059A000B82001230B93FFF78DFA0699DDF81CC090
:1059B00008980A9B6A469060C2F804C010604DF2D5
:1059C0007422C0F60002C420FFF71CFB079A089857
:1059D0000A9B694688604A6008604DF27822C0F6EA
:1059E000000250210991FFF70DFBDDF820C0099955
:1059F0000A98DDF81CE040F20402C2F200021288AC
:105A00006B46C3F808E0C3F804C01860DC20042328
:105A1000FFF758FADDF81CC0089809990A9B6A46F6
:105A20009060C2F804C010604DF29722C0F60002E8
:105A30004FF48A70FFF7E6FA0B9800F007FE07E7CD
:105A40002D431CEBE2361A3F0000000000005940D5
:105A50009A9999999999A93F000000000000244063
:105A60000000C84280B54EF21000CEF2000000687F
:105A700003F0B4F8012803D0FFE702F0E3FBFFE7EF
:105A800080BD000080B594B008A83021FAF7B1FCC1
:105A9000002007900690059004900390FFE70020F7
:105AA000029043F64000C4F20200016841F08051C8
:105AB0000160006800F0805002900298FFE7FFE765
:105AC0000020019047F20000C4F20000016841F498
:105AD00080410160006800F4804001900198FFE778
